:020000040000FA
:020000000528D1
:040002000034003492
:08000800312807309F001A2087
:100010002D20A20180305B2043305E206F305E20B7
:1000200075305E206E305E2074305E203A305E2087
:100030003D200A28831603138501013086008312B0
:1000400003136E2033305B2032305B2028305B207E
:100050000C305B2001305B2008008B170B168B10D7
:100060000800A500030EA6008B1C3828A20A8B10DE
:10007000260E8300A50E250E09002208AA00A7015E
:10008000A80164302A02031C4828AA00A70A4128B4
:100090000A302A02031C4F28AA00A80A48282A0866
:1000A000A9002708303E5E202808303E5E2029083F
:1000B000303E5E200800A00005106028A000051456
:1000C0002008F03986006A20200EF03986006A2068
:1000D0006E20080085140000851008001430A3006D
:0C00E000A401A40B7128A30B70280800D9
:02400E006A3F07
:00000001FF
