:020000040000FA
:020000000528D1
:040002000034003492
:08000800162807309F0031208B
:100010005B203B20A301A401A201803065202308BE
:100020004020C0306520240840200D28A000030E89
:10003000A1000B191E288B1829282C286430810058
:100040000B11A20AC8302202031D2C28A201A30A08
:100050002C28A301A40A8B10210E8300A00E200ED1
:100060000900831603138501013086008430810066
:1000700083120313080064308100B0308B00080045
:10008000A500A601A70164302502031C4A28A5008B
:10009000A60A43280A302502031C5128A500A70AF6
:1000A0004A282608303E67202708303E672025086A
:1000B000303E6720080076203230652028306520E9
:1000C0000C306520013065200800051068280514F3
:1000D000B000F0398600851400008510300EF0392C
:1000E000860085140000851076200800FA30B100E3
:0600F000B10B78280800A6
:02400E00623F0F
:00000001FF
