:020000040000FA
:1000000007309F002B200D2025081720A60026086A
:100010004E205D20803043200328A5018619A515B8
:10002000061925158618A514061825140800A5001C
:1000300025080F39820730343134323433343434C4
:100040003534363437343834393441344234433437
:1000500044344534463483160313003085000F3092
:10006000860083120313850186015D20333043200F
:1000700032304320283043200C30432006304320C8
:1000800001304320080005108514A000F0398600D7
:100090005920200EF03986005920080005148514D7
:1000A000A100F03986005920210EF0398600592030
:1000B000080085105D20851408003230A200A301DD
:0A00C000A30B6028A20B5F280800C4
:0400CA0000340034CA
:02400E006A3F07
:00000001FF
