:020000040000FA
:1000000007309F000A2043302C206F302C204530D1
:100010002C200928831603130030850086008312E4
:100020000313850186013B2033302120323021200B
:10003000283021200C3021200630212001302120C1
:10004000080005108514A000F03986003720200E26
:10005000F03986003720080005148514A100F03916
:1000600086003720210EF0398600372008008510E1
:100070003B20851408003230A200A301A30B3E28C8
:06008000A20B3D28080060
:04008600003400340E
:02400E006A3F07
:00000001FF
